{
  "_format": "hh-sol-artifact-1",
  "contractName": "AuctionContract",
  "sourceName": "contracts/AuctionContract.sol",
  "abi": [
    {
      "inputs": [
        {
          "internalType": "contract IERC721",
          "name": "nftContract_",
          "type": "address"
        }
      ],
      "stateMutability": "nonpayable",
      "type": "constructor"
    },
    {
      "inputs": [
        {
          "internalType": "address",
          "name": "owner",
          "type": "address"
        }
      ],
      "name": "OwnableInvalidOwner",
      "type": "error"
    },
    {
      "inputs": [
        {
          "internalType": "address",
          "name": "account",
          "type": "address"
        }
      ],
      "name": "OwnableUnauthorizedAccount",
      "type": "error"
    },
    {
      "inputs": [],
      "name": "ReentrancyGuardReentrantCall",
      "type": "error"
    },
    {
      "anonymous": false,
      "inputs": [
        {
          "indexed": false,
          "internalType": "uint256",
          "name": "auctionId",
          "type": "uint256"
        }
      ],
      "name": "AuctionCreated",
      "type": "event"
    },
    {
      "anonymous": false,
      "inputs": [
        {
          "indexed": false,
          "internalType": "uint256",
          "name": "auctionId",
          "type": "uint256"
        },
        {
          "indexed": false,
          "internalType": "address",
          "name": "bidder",
          "type": "address"
        },
        {
          "indexed": false,
          "internalType": "uint256",
          "name": "value",
          "type": "uint256"
        },
        {
          "indexed": false,
          "internalType": "bool",
          "name": "isVirtual",
          "type": "bool"
        }
      ],
      "name": "BidPlaced",
      "type": "event"
    },
    {
      "anonymous": false,
      "inputs": [
        {
          "indexed": false,
          "internalType": "uint256",
          "name": "auctionId",
          "type": "uint256"
        },
        {
          "indexed": false,
          "internalType": "bool",
          "name": "isVirtual",
          "type": "bool"
        }
      ],
      "name": "CoinClaimed",
      "type": "event"
    },
    {
      "anonymous": false,
      "inputs": [
        {
          "indexed": false,
          "internalType": "uint256",
          "name": "auctionId",
          "type": "uint256"
        }
      ],
      "name": "NFTClaimed",
      "type": "event"
    },
    {
      "anonymous": false,
      "inputs": [
        {
          "indexed": true,
          "internalType": "address",
          "name": "previousOwner",
          "type": "address"
        },
        {
          "indexed": true,
          "internalType": "address",
          "name": "newOwner",
          "type": "address"
        }
      ],
      "name": "OwnershipTransferred",
      "type": "event"
    },
    {
      "inputs": [
        {
          "internalType": "uint256",
          "name": "",
          "type": "uint256"
        }
      ],
      "name": "auctions",
      "outputs": [
        {
          "internalType": "address",
          "name": "seller",
          "type": "address"
        },
        {
          "internalType": "uint256",
          "name": "tokenId",
          "type": "uint256"
        },
        {
          "internalType": "uint256",
          "name": "deadline",
          "type": "uint256"
        },
        {
          "internalType": "contract IERC20",
          "name": "coinContract",
          "type": "address"
        },
        {
          "internalType": "address",
          "name": "bestBidder",
          "type": "address"
        },
        {
          "internalType": "uint256",
          "name": "bestBid",
          "type": "uint256"
        },
        {
          "internalType": "bool",
          "name": "bestBidIsVirtual",
          "type": "bool"
        },
        {
          "internalType": "bool",
          "name": "claimedNft",
          "type": "bool"
        },
        {
          "internalType": "bool",
          "name": "claimedCoin",
          "type": "bool"
        }
      ],
      "stateMutability": "view",
      "type": "function"
    },
    {
      "inputs": [
        {
          "internalType": "uint256",
          "name": "auctionId",
          "type": "uint256"
        },
        {
          "internalType": "uint256",
          "name": "value",
          "type": "uint256"
        }
      ],
      "name": "bid",
      "outputs": [],
      "stateMutability": "nonpayable",
      "type": "function"
    },
    {
      "inputs": [
        {
          "internalType": "uint256",
          "name": "auctionId",
          "type": "uint256"
        },
        {
          "internalType": "address",
          "name": "bidder",
          "type": "address"
        },
        {
          "internalType": "uint256",
          "name": "value",
          "type": "uint256"
        }
      ],
      "name": "bidVirtually",
      "outputs": [],
      "stateMutability": "nonpayable",
      "type": "function"
    },
    {
      "inputs": [
        {
          "internalType": "uint256",
          "name": "auctionId",
          "type": "uint256"
        }
      ],
      "name": "claimCoin",
      "outputs": [],
      "stateMutability": "nonpayable",
      "type": "function"
    },
    {
      "inputs": [
        {
          "internalType": "uint256",
          "name": "auctionId",
          "type": "uint256"
        }
      ],
      "name": "claimNft",
      "outputs": [],
      "stateMutability": "nonpayable",
      "type": "function"
    },
    {
      "inputs": [
        {
          "internalType": "uint256",
          "name": "tokenId",
          "type": "uint256"
        },
        {
          "internalType": "contract IERC20",
          "name": "coinContract",
          "type": "address"
        },
        {
          "internalType": "uint256",
          "name": "deadline",
          "type": "uint256"
        }
      ],
      "name": "create",
      "outputs": [],
      "stateMutability": "nonpayable",
      "type": "function"
    },
    {
      "inputs": [],
      "name": "nftContract",
      "outputs": [
        {
          "internalType": "contract IERC721",
          "name": "",
          "type": "address"
        }
      ],
      "stateMutability": "view",
      "type": "function"
    },
    {
      "inputs": [
        {
          "internalType": "address",
          "name": "",
          "type": "address"
        },
        {
          "internalType": "address",
          "name": "",
          "type": "address"
        },
        {
          "internalType": "uint256",
          "name": "",
          "type": "uint256"
        },
        {
          "internalType": "bytes",
          "name": "",
          "type": "bytes"
        }
      ],
      "name": "onERC721Received",
      "outputs": [
        {
          "internalType": "bytes4",
          "name": "",
          "type": "bytes4"
        }
      ],
      "stateMutability": "pure",
      "type": "function"
    },
    {
      "inputs": [],
      "name": "owner",
      "outputs": [
        {
          "internalType": "address",
          "name": "",
          "type": "address"
        }
      ],
      "stateMutability": "view",
      "type": "function"
    },
    {
      "inputs": [],
      "name": "renounceOwnership",
      "outputs": [],
      "stateMutability": "nonpayable",
      "type": "function"
    },
    {
      "inputs": [
        {
          "internalType": "address",
          "name": "newOwner",
          "type": "address"
        }
      ],
      "name": "transferOwnership",
      "outputs": [],
      "stateMutability": "nonpayable",
      "type": "function"
    }
  ],
  "bytecode": "0x60806040523480156200001157600080fd5b5060405162001b2038038062001b20833981810160405281019062000037919062000250565b33600073ffffffffffffffffffffffffffffffffffffffff168173ffffffffffffffffffffffffffffffffffffffff1603620000ad5760006040517f1e4fbdf7000000000000000000000000000000000000000000000000000000008152600401620000a4919062000293565b60405180910390fd5b620000be816200010e60201b60201c565b506001808190555080600260006101000a81548173ffffffffffffffffffffffffffffffffffffffff021916908373ffffffffffffffffffffffffffffffffffffffff16021790555050620002b0565b60008060009054906101000a900473ffffffffffffffffffffffffffffffffffffffff169050816000806101000a81548173ffffffffffffffffffffffffffffffffffffffff021916908373ffffffffffffffffffffffffffffffffffffffff1602179055508173ffffffffffffffffffffffffffffffffffffffff168173ffffffffffffffffffffffffffffffffffffffff167f8be0079c531659141344cd1fd0a4f28419497f9722a3daafe3b4186f6b6457e060405160405180910390a35050565b600080fd5b600073ffffffffffffffffffffffffffffffffffffffff82169050919050565b60006200020482620001d7565b9050919050565b60006200021882620001f7565b9050919050565b6200022a816200020b565b81146200023657600080fd5b50565b6000815190506200024a816200021f565b92915050565b600060208284031215620002695762000268620001d2565b5b6000620002798482850162000239565b91505092915050565b6200028d81620001f7565b82525050565b6000602082019050620002aa600083018462000282565b92915050565b61186080620002c06000396000f3fe608060405234801561001057600080fd5b50600436106100a95760003560e01c8063598647f811610071578063598647f81461016a578063715018a6146101865780638da5cb5b14610190578063d56d229d146101ae578063d60b0056146101cc578063f2fde38b146101e8576100a9565b80630e7d4fc3146100ae578063150b7a02146100ca5780632ec09d39146100fa57806352c9d72714610116578063571a26a014610132575b600080fd5b6100c860048036038101906100c39190610fa5565b610204565b005b6100e460048036038101906100df9190611095565b6103d2565b6040516100f19190611158565b60405180910390f35b610114600480360381019061010f9190610fa5565b6103e7565b005b610130600480360381019061012b91906111b1565b610579565b005b61014c60048036038101906101479190610fa5565b610864565b6040516101619998979695949392919061129c565b60405180910390f35b610184600480360381019061017f9190611329565b610949565b005b61018e610a36565b005b610198610a4a565b6040516101a59190611369565b60405180910390f35b6101b6610a73565b6040516101c391906113a5565b60405180910390f35b6101e660048036038101906101e191906113c0565b610a99565b005b61020260048036038101906101fd9190611413565b610ab3565b005b60006003828154811061021a57610219611440565b5b9060005260206000209060070201905061023381610b39565b8060060160029054906101000a900460ff1615610285576040517f08c379a000000000000000000000000000000000000000000000000000000000815260040161027c906114cc565b60405180910390fd5b60018160060160026101000a81548160ff0219169083151502179055508060060160009054906101000a900460ff16610384578060030160009054906101000a900473ffffffffffffffffffffffffffffffffffffffff1673ffffffffffffffffffffffffffffffffffffffff1663a9059cbb8260000160009054906101000a900473ffffffffffffffffffffffffffffffffffffffff1683600501546040518363ffffffff1660e01b815260040161033f9291906114ec565b6020604051808303816000875af115801561035e573d6000803e3d6000fd5b505050506040513d601f19601f820116820180604052508101906103829190611541565b505b7fc46fbfc94bbf6f4ef1edd57fe8bd35d7a633e11f86391d8ce3843bae142bc452828260060160009054906101000a900460ff166040516103c692919061156e565b60405180910390a15050565b600063150b7a0260e01b905095945050505050565b6000600382815481106103fd576103fc611440565b5b9060005260206000209060070201905061041681610b39565b8060060160019054906101000a900460ff1615610468576040517f08c379a000000000000000000000000000000000000000000000000000000000815260040161045f906115e3565b60405180910390fd5b60018160060160016101000a81548160ff021916908315150217905550600260009054906101000a900473ffffffffffffffffffffffffffffffffffffffff1673ffffffffffffffffffffffffffffffffffffffff166342842e0e308360040160009054906101000a900473ffffffffffffffffffffffffffffffffffffffff1684600101546040518463ffffffff1660e01b815260040161050c93929190611603565b600060405180830381600087803b15801561052657600080fd5b505af115801561053a573d6000803e3d6000fd5b505050507f10cbafd51581222f51ee11cbbcde5637b97cb913d4fce06817002c8938f7adfb8260405161056d919061163a565b60405180910390a15050565b600260009054906101000a900473ffffffffffffffffffffffffffffffffffffffff1673ffffffffffffffffffffffffffffffffffffffff166342842e0e3330866040518463ffffffff1660e01b81526004016105d893929190611603565b600060405180830381600087803b1580156105f257600080fd5b505af1158015610606573d6000803e3d6000fd5b5050505060006040518061012001604052803373ffffffffffffffffffffffffffffffffffffffff1681526020018581526020018381526020018473ffffffffffffffffffffffffffffffffffffffff1681526020013373ffffffffffffffffffffffffffffffffffffffff1681526020016000815260200160001515815260200160001515815260200160001515815250905060006003805490509050600382908060018154018082558091505060019003906000526020600020906007020160009091909190915060008201518160000160006101000a81548173ffffffffffffffffffffffffffffffffffffffff021916908373ffffffffffffffffffffffffffffffffffffffff160217905550602082015181600101556040820151816002015560608201518160030160006101000a81548173ffffffffffffffffffffffffffffffffffffffff021916908373ffffffffffffffffffffffffffffffffffffffff16021790555060808201518160040160006101000a81548173ffffffffffffffffffffffffffffffffffffffff021916908373ffffffffffffffffffffffffffffffffffffffff16021790555060a0820151816005015560c08201518160060160006101000a81548160ff02191690831515021790555060e08201518160060160016101000a81548160ff0219169083151502179055506101008201518160060160026101000a81548160ff02191690831515021790555050507f7e0e356457a92dacd3760ddf327a24dd226c6ca01b2cc41a7fd6f28469c7ab9b81604051610855919061163a565b60405180910390a15050505050565b6003818154811061087457600080fd5b90600052602060002090600702016000915090508060000160009054906101000a900473ffffffffffffffffffffffffffffffffffffffff16908060010154908060020154908060030160009054906101000a900473ffffffffffffffffffffffffffffffffffffffff16908060040160009054906101000a900473ffffffffffffffffffffffffffffffffffffffff16908060050154908060060160009054906101000a900460ff16908060060160019054906101000a900460ff16908060060160029054906101000a900460ff16905089565b610951610b83565b60006003838154811061096757610966611440565b5b906000526020600020906007020190508060030160009054906101000a900473ffffffffffffffffffffffffffffffffffffffff1673ffffffffffffffffffffffffffffffffffffffff166323b872dd3330856040518463ffffffff1660e01b81526004016109d893929190611603565b6020604051808303816000875af11580156109f7573d6000803e3d6000fd5b505050506040513d601f19601f82011682018060405250810190610a1b9190611541565b50610a298333846000610bc9565b50610a32610e09565b5050565b610a3e610e12565b610a486000610e99565b565b60008060009054906101000a900473ffffffffffffffffffffffffffffffffffffffff16905090565b600260009054906101000a900473ffffffffffffffffffffffffffffffffffffffff1681565b610aa1610e12565b610aae8383836001610bc9565b505050565b610abb610e12565b600073ffffffffffffffffffffffffffffffffffffffff168173ffffffffffffffffffffffffffffffffffffffff1603610b2d5760006040517f1e4fbdf7000000000000000000000000000000000000000000000000000000008152600401610b249190611369565b60405180910390fd5b610b3681610e99565b50565b8060020154421015610b80576040517f08c379a0000000000000000000000000000000000000000000000000000000008152600401610b77906116c7565b60405180910390fd5b50565b600260015403610bbf576040517f3ee5aeb500000000000000000000000000000000000000000000000000000000815260040160405180910390fd5b6002600181905550565b600060038581548110610bdf57610bde611440565b5b9060005260206000209060070201905080600501548311610c35576040517f08c379a0000000000000000000000000000000000000000000000000000000008152600401610c2c90611733565b60405180910390fd5b80600201544210610c7b576040517f08c379a0000000000000000000000000000000000000000000000000000000008152600401610c72906117c5565b60405180910390fd5b8060060160009054906101000a900460ff16610d5d578060030160009054906101000a900473ffffffffffffffffffffffffffffffffffffffff1673ffffffffffffffffffffffffffffffffffffffff1663a9059cbb8260040160009054906101000a900473ffffffffffffffffffffffffffffffffffffffff1683600501546040518363ffffffff1660e01b8152600401610d189291906114ec565b6020604051808303816000875af1158015610d37573d6000803e3d6000fd5b505050506040513d601f19601f82011682018060405250810190610d5b9190611541565b505b838160040160006101000a81548173ffffffffffffffffffffffffffffffffffffffff021916908373ffffffffffffffffffffffffffffffffffffffff160217905550828160050181905550818160060160006101000a81548160ff0219169083151502179055507f8f06251a01f1c60f43d914574d31d4eb5be776df9d23e7f94e7c07c578b9753d85858585604051610dfa94939291906117e5565b60405180910390a15050505050565b60018081905550565b610e1a610f5d565b73ffffffffffffffffffffffffffffffffffffffff16610e38610a4a565b73ffffffffffffffffffffffffffffffffffffffff1614610e9757610e5b610f5d565b6040517f118cdaa7000000000000000000000000000000000000000000000000000000008152600401610e8e9190611369565b60405180910390fd5b565b60008060009054906101000a900473ffffffffffffffffffffffffffffffffffffffff169050816000806101000a81548173ffffffffffffffffffffffffffffffffffffffff021916908373ffffffffffffffffffffffffffffffffffffffff1602179055508173ffffffffffffffffffffffffffffffffffffffff168173ffffffffffffffffffffffffffffffffffffffff167f8be0079c531659141344cd1fd0a4f28419497f9722a3daafe3b4186f6b6457e060405160405180910390a35050565b600033905090565b600080fd5b600080fd5b6000819050919050565b610f8281610f6f565b8114610f8d57600080fd5b50565b600081359050610f9f81610f79565b92915050565b600060208284031215610fbb57610fba610f65565b5b6000610fc984828501610f90565b91505092915050565b600073ffffffffffffffffffffffffffffffffffffffff82169050919050565b6000610ffd82610fd2565b9050919050565b61100d81610ff2565b811461101857600080fd5b50565b60008135905061102a81611004565b92915050565b600080fd5b600080fd5b600080fd5b60008083601f84011261105557611054611030565b5b8235905067ffffffffffffffff81111561107257611071611035565b5b60208301915083600182028301111561108e5761108d61103a565b5b9250929050565b6000806000806000608086880312156110b1576110b0610f65565b5b60006110bf8882890161101b565b95505060206110d08882890161101b565b94505060406110e188828901610f90565b935050606086013567ffffffffffffffff81111561110257611101610f6a565b5b61110e8882890161103f565b92509250509295509295909350565b60007fffffffff0000000000000000000000000000000000000000000000000000000082169050919050565b6111528161111d565b82525050565b600060208201905061116d6000830184611149565b92915050565b600061117e82610ff2565b9050919050565b61118e81611173565b811461119957600080fd5b50565b6000813590506111ab81611185565b92915050565b6000806000606084860312156111ca576111c9610f65565b5b60006111d886828701610f90565b93505060206111e98682870161119c565b92505060406111fa86828701610f90565b9150509250925092565b61120d81610ff2565b82525050565b61121c81610f6f565b82525050565b6000819050919050565b600061124761124261123d84610fd2565b611222565b610fd2565b9050919050565b60006112598261122c565b9050919050565b600061126b8261124e565b9050919050565b61127b81611260565b82525050565b60008115159050919050565b61129681611281565b82525050565b6000610120820190506112b2600083018c611204565b6112bf602083018b611213565b6112cc604083018a611213565b6112d96060830189611272565b6112e66080830188611204565b6112f360a0830187611213565b61130060c083018661128d565b61130d60e083018561128d565b61131b61010083018461128d565b9a9950505050505050505050565b600080604083850312156113405761133f610f65565b5b600061134e85828601610f90565b925050602061135f85828601610f90565b9150509250929050565b600060208201905061137e6000830184611204565b92915050565b600061138f8261124e565b9050919050565b61139f81611384565b82525050565b60006020820190506113ba6000830184611396565b92915050565b6000806000606084860312156113d9576113d8610f65565b5b60006113e786828701610f90565b93505060206113f88682870161101b565b925050604061140986828701610f90565b9150509250925092565b60006020828403121561142957611428610f65565b5b60006114378482850161101b565b91505092915050565b7f4e487b7100000000000000000000000000000000000000000000000000000000600052603260045260246000fd5b600082825260208201905092915050565b7f41756374696f6e3a20436f696e20616c726561647920636c61696d6564000000600082015250565b60006114b6601d8361146f565b91506114c182611480565b602082019050919050565b600060208201905081810360008301526114e5816114a9565b9050919050565b60006040820190506115016000830185611204565b61150e6020830184611213565b9392505050565b61151e81611281565b811461152957600080fd5b50565b60008151905061153b81611515565b92915050565b60006020828403121561155757611556610f65565b5b60006115658482850161152c565b91505092915050565b60006040820190506115836000830185611213565b611590602083018461128d565b9392505050565b7f41756374696f6e3a204e465420616c726561647920636c61696d656400000000600082015250565b60006115cd601c8361146f565b91506115d882611597565b602082019050919050565b600060208201905081810360008301526115fc816115c0565b9050919050565b60006060820190506116186000830186611204565b6116256020830185611204565b6116326040830184611213565b949350505050565b600060208201905061164f6000830184611213565b92915050565b7f41756374696f6e3a20446561646c696e65206e6f74207965742072656163686560008201527f6400000000000000000000000000000000000000000000000000000000000000602082015250565b60006116b160218361146f565b91506116bc82611655565b604082019050919050565b600060208201905081810360008301526116e0816116a4565b9050919050565b7f41756374696f6e3a20426964206d757374206265206869676865720000000000600082015250565b600061171d601b8361146f565b9150611728826116e7565b602082019050919050565b6000602082019050818103600083015261174c81611710565b9050919050565b7f41756374696f6e3a2043616e6e6f7420706c616365206269642061667465722060008201527f646561646c696e65000000000000000000000000000000000000000000000000602082015250565b60006117af60288361146f565b91506117ba82611753565b604082019050919050565b600060208201905081810360008301526117de816117a2565b9050919050565b60006080820190506117fa6000830187611213565b6118076020830186611204565b6118146040830185611213565b611821606083018461128d565b9594505050505056fea26469706673582212207420454d0145f614bbc0365b75a0318267514350bdc21054c1b5095466a1a16264736f6c63430008180033",
  "linkReferences": {},
  "deployedLinkReferences": {}
}