{
  "_format": "hh-sol-artifact-1",
  "contractName": "NectartToken",
  "sourceName": "contracts/NectartToken.sol",
  "abi": [
    {
      "inputs": [],
      "stateMutability": "nonpayable",
      "type": "constructor"
    },
    {
      "inputs": [
        {
          "internalType": "address",
          "name": "sender",
          "type": "address"
        },
        {
          "internalType": "uint256",
          "name": "tokenId",
          "type": "uint256"
        },
        {
          "internalType": "address",
          "name": "owner",
          "type": "address"
        }
      ],
      "name": "ERC721IncorrectOwner",
      "type": "error"
    },
    {
      "inputs": [
        {
          "internalType": "address",
          "name": "operator",
          "type": "address"
        },
        {
          "internalType": "uint256",
          "name": "tokenId",
          "type": "uint256"
        }
      ],
      "name": "ERC721InsufficientApproval",
      "type": "error"
    },
    {
      "inputs": [
        {
          "internalType": "address",
          "name": "approver",
          "type": "address"
        }
      ],
      "name": "ERC721InvalidApprover",
      "type": "error"
    },
    {
      "inputs": [
        {
          "internalType": "address",
          "name": "operator",
          "type": "address"
        }
      ],
      "name": "ERC721InvalidOperator",
      "type": "error"
    },
    {
      "inputs": [
        {
          "internalType": "address",
          "name": "owner",
          "type": "address"
        }
      ],
      "name": "ERC721InvalidOwner",
      "type": "error"
    },
    {
      "inputs": [
        {
          "internalType": "address",
          "name": "receiver",
          "type": "address"
        }
      ],
      "name": "ERC721InvalidReceiver",
      "type": "error"
    },
    {
      "inputs": [
        {
          "internalType": "address",
          "name": "sender",
          "type": "address"
        }
      ],
      "name": "ERC721InvalidSender",
      "type": "error"
    },
    {
      "inputs": [
        {
          "internalType": "uint256",
          "name": "tokenId",
          "type": "uint256"
        }
      ],
      "name": "ERC721NonexistentToken",
      "type": "error"
    },
    {
      "inputs": [
        {
          "internalType": "address",
          "name": "owner",
          "type": "address"
        }
      ],
      "name": "OwnableInvalidOwner",
      "type": "error"
    },
    {
      "inputs": [
        {
          "internalType": "address",
          "name": "account",
          "type": "address"
        }
      ],
      "name": "OwnableUnauthorizedAccount",
      "type": "error"
    },
    {
      "anonymous": false,
      "inputs": [
        {
          "indexed": true,
          "internalType": "address",
          "name": "owner",
          "type": "address"
        },
        {
          "indexed": true,
          "internalType": "address",
          "name": "approved",
          "type": "address"
        },
        {
          "indexed": true,
          "internalType": "uint256",
          "name": "tokenId",
          "type": "uint256"
        }
      ],
      "name": "Approval",
      "type": "event"
    },
    {
      "anonymous": false,
      "inputs": [
        {
          "indexed": true,
          "internalType": "address",
          "name": "owner",
          "type": "address"
        },
        {
          "indexed": true,
          "internalType": "address",
          "name": "operator",
          "type": "address"
        },
        {
          "indexed": false,
          "internalType": "bool",
          "name": "approved",
          "type": "bool"
        }
      ],
      "name": "ApprovalForAll",
      "type": "event"
    },
    {
      "anonymous": false,
      "inputs": [
        {
          "indexed": true,
          "internalType": "address",
          "name": "previousOwner",
          "type": "address"
        },
        {
          "indexed": true,
          "internalType": "address",
          "name": "newOwner",
          "type": "address"
        }
      ],
      "name": "OwnershipTransferred",
      "type": "event"
    },
    {
      "anonymous": false,
      "inputs": [
        {
          "indexed": true,
          "internalType": "address",
          "name": "from",
          "type": "address"
        },
        {
          "indexed": true,
          "internalType": "address",
          "name": "to",
          "type": "address"
        },
        {
          "indexed": true,
          "internalType": "uint256",
          "name": "tokenId",
          "type": "uint256"
        }
      ],
      "name": "Transfer",
      "type": "event"
    },
    {
      "inputs": [
        {
          "internalType": "address",
          "name": "to",
          "type": "address"
        },
        {
          "internalType": "uint256",
          "name": "tokenId",
          "type": "uint256"
        }
      ],
      "name": "approve",
      "outputs": [],
      "stateMutability": "nonpayable",
      "type": "function"
    },
    {
      "inputs": [
        {
          "internalType": "address",
          "name": "owner",
          "type": "address"
        }
      ],
      "name": "balanceOf",
      "outputs": [
        {
          "internalType": "uint256",
          "name": "",
          "type": "uint256"
        }
      ],
      "stateMutability": "view",
      "type": "function"
    },
    {
      "inputs": [
        {
          "internalType": "uint256",
          "name": "tokenId",
          "type": "uint256"
        }
      ],
      "name": "getApproved",
      "outputs": [
        {
          "internalType": "address",
          "name": "",
          "type": "address"
        }
      ],
      "stateMutability": "view",
      "type": "function"
    },
    {
      "inputs": [
        {
          "internalType": "address",
          "name": "owner",
          "type": "address"
        },
        {
          "internalType": "address",
          "name": "operator",
          "type": "address"
        }
      ],
      "name": "isApprovedForAll",
      "outputs": [
        {
          "internalType": "bool",
          "name": "",
          "type": "bool"
        }
      ],
      "stateMutability": "view",
      "type": "function"
    },
    {
      "inputs": [],
      "name": "name",
      "outputs": [
        {
          "internalType": "string",
          "name": "",
          "type": "string"
        }
      ],
      "stateMutability": "view",
      "type": "function"
    },
    {
      "inputs": [],
      "name": "owner",
      "outputs": [
        {
          "internalType": "address",
          "name": "",
          "type": "address"
        }
      ],
      "stateMutability": "view",
      "type": "function"
    },
    {
      "inputs": [
        {
          "internalType": "uint256",
          "name": "tokenId",
          "type": "uint256"
        }
      ],
      "name": "ownerOf",
      "outputs": [
        {
          "internalType": "address",
          "name": "",
          "type": "address"
        }
      ],
      "stateMutability": "view",
      "type": "function"
    },
    {
      "inputs": [],
      "name": "renounceOwnership",
      "outputs": [],
      "stateMutability": "nonpayable",
      "type": "function"
    },
    {
      "inputs": [
        {
          "internalType": "address",
          "name": "to",
          "type": "address"
        }
      ],
      "name": "safeMint",
      "outputs": [],
      "stateMutability": "nonpayable",
      "type": "function"
    },
    {
      "inputs": [
        {
          "internalType": "address",
          "name": "from",
          "type": "address"
        },
        {
          "internalType": "address",
          "name": "to",
          "type": "address"
        },
        {
          "internalType": "uint256",
          "name": "tokenId",
          "type": "uint256"
        }
      ],
      "name": "safeTransferFrom",
      "outputs": [],
      "stateMutability": "nonpayable",
      "type": "function"
    },
    {
      "inputs": [
        {
          "internalType": "address",
          "name": "from",
          "type": "address"
        },
        {
          "internalType": "address",
          "name": "to",
          "type": "address"
        },
        {
          "internalType": "uint256",
          "name": "tokenId",
          "type": "uint256"
        },
        {
          "internalType": "bytes",
          "name": "data",
          "type": "bytes"
        }
      ],
      "name": "safeTransferFrom",
      "outputs": [],
      "stateMutability": "nonpayable",
      "type": "function"
    },
    {
      "inputs": [
        {
          "internalType": "address",
          "name": "operator",
          "type": "address"
        },
        {
          "internalType": "bool",
          "name": "approved",
          "type": "bool"
        }
      ],
      "name": "setApprovalForAll",
      "outputs": [],
      "stateMutability": "nonpayable",
      "type": "function"
    },
    {
      "inputs": [
        {
          "internalType": "bytes4",
          "name": "interfaceId",
          "type": "bytes4"
        }
      ],
      "name": "supportsInterface",
      "outputs": [
        {
          "internalType": "bool",
          "name": "",
          "type": "bool"
        }
      ],
      "stateMutability": "view",
      "type": "function"
    },
    {
      "inputs": [],
      "name": "symbol",
      "outputs": [
        {
          "internalType": "string",
          "name": "",
          "type": "string"
        }
      ],
      "stateMutability": "view",
      "type": "function"
    },
    {
      "inputs": [
        {
          "internalType": "uint256",
          "name": "tokenId",
          "type": "uint256"
        }
      ],
      "name": "tokenURI",
      "outputs": [
        {
          "internalType": "string",
          "name": "",
          "type": "string"
        }
      ],
      "stateMutability": "view",
      "type": "function"
    },
    {
      "inputs": [
        {
          "internalType": "address",
          "name": "from",
          "type": "address"
        },
        {
          "internalType": "address",
          "name": "to",
          "type": "address"
        },
        {
          "internalType": "uint256",
          "name": "tokenId",
          "type": "uint256"
        }
      ],
      "name": "transferFrom",
      "outputs": [],
      "stateMutability": "nonpayable",
      "type": "function"
    },
    {
      "inputs": [
        {
          "internalType": "address",
          "name": "newOwner",
          "type": "address"
        }
      ],
      "name": "transferOwnership",
      "outputs": [],
      "stateMutability": "nonpayable",
      "type": "function"
    }
  ],
  "bytecode": "0x60806040523480156200001157600080fd5b50336040518060400160405280600781526020017f4e656374617274000000000000000000000000000000000000000000000000008152506040518060400160405280600781526020017f4e45435441525400000000000000000000000000000000000000000000000000815250816000908162000090919062000472565b508060019081620000a2919062000472565b505050600073ffffffffffffffffffffffffffffffffffffffff168173ffffffffffffffffffffffffffffffffffffffff16036200011a5760006040517f1e4fbdf70000000000000000000000000000000000000000000000000000000081526004016200011191906200059e565b60405180910390fd5b6200012b816200013260201b60201c565b50620005bb565b6000600660009054906101000a900473ffffffffffffffffffffffffffffffffffffffff16905081600660006101000a81548173ffffffffffffffffffffffffffffffffffffffff021916908373ffffffffffffffffffffffffffffffffffffffff1602179055508173ffffffffffffffffffffffffffffffffffffffff168173ffffffffffffffffffffffffffffffffffffffff167f8be0079c531659141344cd1fd0a4f28419497f9722a3daafe3b4186f6b6457e060405160405180910390a35050565b600081519050919050565b7f4e487b7100000000000000000000000000000000000000000000000000000000600052604160045260246000fd5b7f4e487b7100000000000000000000000000000000000000000000000000000000600052602260045260246000fd5b600060028204905060018216806200027a57607f821691505b60208210810362000290576200028f62000232565b5b50919050565b60008190508160005260206000209050919050565b60006020601f8301049050919050565b600082821b905092915050565b600060088302620002fa7fffffffffffffffffffffffffffffffffffffffffffffffffffffffffffffffff82620002bb565b620003068683620002bb565b95508019841693508086168417925050509392505050565b6000819050919050565b6000819050919050565b6000620003536200034d62000347846200031e565b62000328565b6200031e565b9050919050565b6000819050919050565b6200036f8362000332565b620003876200037e826200035a565b848454620002c8565b825550505050565b600090565b6200039e6200038f565b620003ab81848462000364565b505050565b5b81811015620003d357620003c760008262000394565b600181019050620003b1565b5050565b601f8211156200042257620003ec8162000296565b620003f784620002ab565b8101602085101562000407578190505b6200041f6200041685620002ab565b830182620003b0565b50505b505050565b600082821c905092915050565b6000620004476000198460080262000427565b1980831691505092915050565b600062000462838362000434565b9150826002028217905092915050565b6200047d82620001f8565b67ffffffffffffffff81111562000499576200049862000203565b5b620004a5825462000261565b620004b2828285620003d7565b600060209050601f831160018114620004ea5760008415620004d5578287015190505b620004e1858262000454565b86555062000551565b601f198416620004fa8662000296565b60005b828110156200052457848901518255600182019150602085019450602081019050620004fd565b8683101562000544578489015162000540601f89168262000434565b8355505b6001600288020188555050505b505050505050565b600073ffffffffffffffffffffffffffffffffffffffff82169050919050565b6000620005868262000559565b9050919050565b620005988162000579565b82525050565b6000602082019050620005b560008301846200058d565b92915050565b6120fc80620005cb6000396000f3fe608060405234801561001057600080fd5b506004361061010b5760003560e01c806370a08231116100a2578063a22cb46511610071578063a22cb465146102a4578063b88d4fde146102c0578063c87b56dd146102dc578063e985e9c51461030c578063f2fde38b1461033c5761010b565b806370a082311461022e578063715018a61461025e5780638da5cb5b1461026857806395d89b41146102865761010b565b806323b872dd116100de57806323b872dd146101aa57806340d097c3146101c657806342842e0e146101e25780636352211e146101fe5761010b565b806301ffc9a71461011057806306fdde0314610140578063081812fc1461015e578063095ea7b31461018e575b600080fd5b61012a600480360381019061012591906118cf565b610358565b6040516101379190611917565b60405180910390f35b61014861043a565b60405161015591906119c2565b60405180910390f35b61017860048036038101906101739190611a1a565b6104cc565b6040516101859190611a88565b60405180910390f35b6101a860048036038101906101a39190611acf565b6104e8565b005b6101c460048036038101906101bf9190611b0f565b6104fe565b005b6101e060048036038101906101db9190611b62565b610600565b005b6101fc60048036038101906101f79190611b0f565b610629565b005b61021860048036038101906102139190611a1a565b610649565b6040516102259190611a88565b60405180910390f35b61024860048036038101906102439190611b62565b61065b565b6040516102559190611b9e565b60405180910390f35b610266610715565b005b610270610729565b60405161027d9190611a88565b60405180910390f35b61028e610753565b60405161029b91906119c2565b60405180910390f35b6102be60048036038101906102b99190611be5565b6107e5565b005b6102da60048036038101906102d59190611d5a565b6107fb565b005b6102f660048036038101906102f19190611a1a565b610818565b60405161030391906119c2565b60405180910390f35b61032660048036038101906103219190611ddd565b610881565b6040516103339190611917565b60405180910390f35b61035660048036038101906103519190611b62565b610915565b005b60007f80ac58cd000000000000000000000000000000000000000000000000000000007bffffffffffffffffffffffffffffffffffffffffffffffffffffffff1916827bffffffffffffffffffffffffffffffffffffffffffffffffffffffff1916148061042357507f5b5e139f000000000000000000000000000000000000000000000000000000007bffffffffffffffffffffffffffffffffffffffffffffffffffffffff1916827bffffffffffffffffffffffffffffffffffffffffffffffffffffffff1916145b8061043357506104328261099b565b5b9050919050565b60606000805461044990611e4c565b80601f016020809104026020016040519081016040528092919081815260200182805461047590611e4c565b80156104c25780601f10610497576101008083540402835291602001916104c2565b820191906000526020600020905b8154815290600101906020018083116104a557829003601f168201915b5050505050905090565b60006104d782610a05565b506104e182610a8d565b9050919050565b6104fa82826104f5610aca565b610ad2565b5050565b600073ffffffffffffffffffffffffffffffffffffffff168273ffffffffffffffffffffffffffffffffffffffff16036105705760006040517f64a0ae920000000000000000000000000000000000000000000000000000000081526004016105679190611a88565b60405180910390fd5b6000610584838361057f610aca565b610ae4565b90508373ffffffffffffffffffffffffffffffffffffffff168173ffffffffffffffffffffffffffffffffffffffff16146105fa578382826040517f64283d7b0000000000000000000000000000000000000000000000000000000081526004016105f193929190611e7d565b60405180910390fd5b50505050565b60006007600081548092919061061590611ee3565b9190505590506106258282610cfe565b5050565b610644838383604051806020016040528060008152506107fb565b505050565b600061065482610a05565b9050919050565b60008073ffffffffffffffffffffffffffffffffffffffff168273ffffffffffffffffffffffffffffffffffffffff16036106ce5760006040517f89c62b640000000000000000000000000000000000000000000000000000000081526004016106c59190611a88565b60405180910390fd5b600360008373ffffffffffffffffffffffffffffffffffffffff1673ffffffffffffffffffffffffffffffffffffffff168152602001908152602001600020549050919050565b61071d610d1c565b6107276000610da3565b565b6000600660009054906101000a900473ffffffffffffffffffffffffffffffffffffffff16905090565b60606001805461076290611e4c565b80601f016020809104026020016040519081016040528092919081815260200182805461078e90611e4c565b80156107db5780601f106107b0576101008083540402835291602001916107db565b820191906000526020600020905b8154815290600101906020018083116107be57829003601f168201915b5050505050905090565b6107f76107f0610aca565b8383610e69565b5050565b6108068484846104fe565b61081284848484610fd8565b50505050565b606061082382610a05565b50600061082e61118f565b9050600081511161084e5760405180602001604052806000815250610879565b80610858846111a6565b604051602001610869929190611f67565b6040516020818303038152906040525b915050919050565b6000600560008473ffffffffffffffffffffffffffffffffffffffff1673ffffffffffffffffffffffffffffffffffffffff16815260200190815260200160002060008373ffffffffffffffffffffffffffffffffffffffff1673ffffffffffffffffffffffffffffffffffffffff16815260200190815260200160002060009054906101000a900460ff16905092915050565b61091d610d1c565b600073ffffffffffffffffffffffffffffffffffffffff168173ffffffffffffffffffffffffffffffffffffffff160361098f5760006040517f1e4fbdf70000000000000000000000000000000000000000000000000000000081526004016109869190611a88565b60405180910390fd5b61099881610da3565b50565b60007f01ffc9a7000000000000000000000000000000000000000000000000000000007bffffffffffffffffffffffffffffffffffffffffffffffffffffffff1916827bffffffffffffffffffffffffffffffffffffffffffffffffffffffff1916149050919050565b600080610a1183611274565b9050600073ffffffffffffffffffffffffffffffffffffffff168173ffffffffffffffffffffffffffffffffffffffff1603610a8457826040517f7e273289000000000000000000000000000000000000000000000000000000008152600401610a7b9190611b9e565b60405180910390fd5b80915050919050565b60006004600083815260200190815260200160002060009054906101000a900473ffffffffffffffffffffffffffffffffffffffff169050919050565b600033905090565b610adf83838360016112b1565b505050565b600080610af084611274565b9050600073ffffffffffffffffffffffffffffffffffffffff168373ffffffffffffffffffffffffffffffffffffffff1614610b3257610b31818486611476565b5b600073ffffffffffffffffffffffffffffffffffffffff168173ffffffffffffffffffffffffffffffffffffffff1614610bc357610b746000856000806112b1565b6001600360008373ffffffffffffffffffffffffffffffffffffffff1673ffffffffffffffffffffffffffffffffffffffff168152602001908152602001600020600082825403925050819055505b600073ffffffffffffffffffffffffffffffffffffffff168573ffffffffffffffffffffffffffffffffffffffff1614610c46576001600360008773ffffffffffffffffffffffffffffffffffffffff1673ffffffffffffffffffffffffffffffffffffffff168152602001908152602001600020600082825401925050819055505b846002600086815260200190815260200160002060006101000a81548173ffffffffffffffffffffffffffffffffffffffff021916908373ffffffffffffffffffffffffffffffffffffffff160217905550838573ffffffffffffffffffffffffffffffffffffffff168273ffffffffffffffffffffffffffffffffffffffff167fddf252ad1be2c89b69c2b068fc378daa952ba7f163c4a11628f55a4df523b3ef60405160405180910390a4809150509392505050565b610d1882826040518060200160405280600081525061153a565b5050565b610d24610aca565b73ffffffffffffffffffffffffffffffffffffffff16610d42610729565b73ffffffffffffffffffffffffffffffffffffffff1614610da157610d65610aca565b6040517f118cdaa7000000000000000000000000000000000000000000000000000000008152600401610d989190611a88565b60405180910390fd5b565b6000600660009054906101000a900473ffffffffffffffffffffffffffffffffffffffff16905081600660006101000a81548173ffffffffffffffffffffffffffffffffffffffff021916908373ffffffffffffffffffffffffffffffffffffffff1602179055508173ffffffffffffffffffffffffffffffffffffffff168173ffffffffffffffffffffffffffffffffffffffff167f8be0079c531659141344cd1fd0a4f28419497f9722a3daafe3b4186f6b6457e060405160405180910390a35050565b600073ffffffffffffffffffffffffffffffffffffffff168273ffffffffffffffffffffffffffffffffffffffff1603610eda57816040517f5b08ba18000000000000000000000000000000000000000000000000000000008152600401610ed19190611a88565b60405180910390fd5b80600560008573ffffffffffffffffffffffffffffffffffffffff1673ffffffffffffffffffffffffffffffffffffffff16815260200190815260200160002060008473ffffffffffffffffffffffffffffffffffffffff1673ffffffffffffffffffffffffffffffffffffffff16815260200190815260200160002060006101000a81548160ff0219169083151502179055508173ffffffffffffffffffffffffffffffffffffffff168373ffffffffffffffffffffffffffffffffffffffff167f17307eab39ab6107e8899845ad3d59bd9653f200f220920489ca2b5937696c3183604051610fcb9190611917565b60405180910390a3505050565b60008373ffffffffffffffffffffffffffffffffffffffff163b1115611189578273ffffffffffffffffffffffffffffffffffffffff1663150b7a0261101c610aca565b8685856040518563ffffffff1660e01b815260040161103e9493929190611fe0565b6020604051808303816000875af192505050801561107a57506040513d601f19601f820116820180604052508101906110779190612041565b60015b6110fe573d80600081146110aa576040519150601f19603f3d011682016040523d82523d6000602084013e6110af565b606091505b5060008151036110f657836040517f64a0ae920000000000000000000000000000000000000000000000000000000081526004016110ed9190611a88565b60405180910390fd5b805181602001fd5b63150b7a0260e01b7bffffffffffffffffffffffffffffffffffffffffffffffffffffffff1916817bffffffffffffffffffffffffffffffffffffffffffffffffffffffff19161461118757836040517f64a0ae9200000000000000000000000000000000000000000000000000000000815260040161117e9190611a88565b60405180910390fd5b505b50505050565b606060405180602001604052806000815250905090565b6060600060016111b584611556565b01905060008167ffffffffffffffff8111156111d4576111d3611c2f565b5b6040519080825280601f01601f1916602001820160405280156112065781602001600182028036833780820191505090505b509050600082602001820190505b600115611269578080600190039150507f3031323334353637383961626364656600000000000000000000000000000000600a86061a8153600a858161125d5761125c61206e565b5b04945060008503611214575b819350505050919050565b60006002600083815260200190815260200160002060009054906101000a900473ffffffffffffffffffffffffffffffffffffffff169050919050565b80806112ea5750600073ffffffffffffffffffffffffffffffffffffffff168273ffffffffffffffffffffffffffffffffffffffff1614155b1561141e5760006112fa84610a05565b9050600073ffffffffffffffffffffffffffffffffffffffff168373ffffffffffffffffffffffffffffffffffffffff161415801561136557508273ffffffffffffffffffffffffffffffffffffffff168173ffffffffffffffffffffffffffffffffffffffff1614155b801561137857506113768184610881565b155b156113ba57826040517fa9fbf51f0000000000000000000000000000000000000000000000000000000081526004016113b19190611a88565b60405180910390fd5b811561141c57838573ffffffffffffffffffffffffffffffffffffffff168273ffffffffffffffffffffffffffffffffffffffff167f8c5be1e5ebec7d5bd14f71427d1e84f3dd0314c0f7b2291e5b200ac8c7c3b92560405160405180910390a45b505b836004600085815260200190815260200160002060006101000a81548173ffffffffffffffffffffffffffffffffffffffff021916908373ffffffffffffffffffffffffffffffffffffffff16021790555050505050565b6114818383836116a9565b61153557600073ffffffffffffffffffffffffffffffffffffffff168373ffffffffffffffffffffffffffffffffffffffff16036114f657806040517f7e2732890000000000000000000000000000000000000000000000000000000081526004016114ed9190611b9e565b60405180910390fd5b81816040517f177e802f00000000000000000000000000000000000000000000000000000000815260040161152c92919061209d565b60405180910390fd5b505050565b611544838361176a565b6115516000848484610fd8565b505050565b600080600090507a184f03e93ff9f4daa797ed6e38ed64bf6a1f01000000000000000083106115b4577a184f03e93ff9f4daa797ed6e38ed64bf6a1f01000000000000000083816115aa576115a961206e565b5b0492506040810190505b6d04ee2d6d415b85acef810000000083106115f1576d04ee2d6d415b85acef810000000083816115e7576115e661206e565b5b0492506020810190505b662386f26fc10000831061162057662386f26fc1000083816116165761161561206e565b5b0492506010810190505b6305f5e1008310611649576305f5e100838161163f5761163e61206e565b5b0492506008810190505b612710831061166e5761271083816116645761166361206e565b5b0492506004810190505b6064831061169157606483816116875761168661206e565b5b0492506002810190505b600a83106116a0576001810190505b80915050919050565b60008073ffffffffffffffffffffffffffffffffffffffff168373ffffffffffffffffffffffffffffffffffffffff161415801561176157508273ffffffffffffffffffffffffffffffffffffffff168473ffffffffffffffffffffffffffffffffffffffff16148061172257506117218484610881565b5b8061176057508273ffffffffffffffffffffffffffffffffffffffff1661174883610a8d565b73ffffffffffffffffffffffffffffffffffffffff16145b5b90509392505050565b600073ffffffffffffffffffffffffffffffffffffffff168273ffffffffffffffffffffffffffffffffffffffff16036117dc5760006040517f64a0ae920000000000000000000000000000000000000000000000000000000081526004016117d39190611a88565b60405180910390fd5b60006117ea83836000610ae4565b9050600073ffffffffffffffffffffffffffffffffffffffff168173ffffffffffffffffffffffffffffffffffffffff161461185e5760006040517f73c6ac6e0000000000000000000000000000000000000000000000000000000081526004016118559190611a88565b60405180910390fd5b505050565b6000604051905090565b600080fd5b600080fd5b60007fffffffff0000000000000000000000000000000000000000000000000000000082169050919050565b6118ac81611877565b81146118b757600080fd5b50565b6000813590506118c9816118a3565b92915050565b6000602082840312156118e5576118e461186d565b5b60006118f3848285016118ba565b91505092915050565b60008115159050919050565b611911816118fc565b82525050565b600060208201905061192c6000830184611908565b92915050565b600081519050919050565b600082825260208201905092915050565b60005b8381101561196c578082015181840152602081019050611951565b60008484015250505050565b6000601f19601f8301169050919050565b600061199482611932565b61199e818561193d565b93506119ae81856020860161194e565b6119b781611978565b840191505092915050565b600060208201905081810360008301526119dc8184611989565b905092915050565b6000819050919050565b6119f7816119e4565b8114611a0257600080fd5b50565b600081359050611a14816119ee565b92915050565b600060208284031215611a3057611a2f61186d565b5b6000611a3e84828501611a05565b91505092915050565b600073ffffffffffffffffffffffffffffffffffffffff82169050919050565b6000611a7282611a47565b9050919050565b611a8281611a67565b82525050565b6000602082019050611a9d6000830184611a79565b92915050565b611aac81611a67565b8114611ab757600080fd5b50565b600081359050611ac981611aa3565b92915050565b60008060408385031215611ae657611ae561186d565b5b6000611af485828601611aba565b9250506020611b0585828601611a05565b9150509250929050565b600080600060608486031215611b2857611b2761186d565b5b6000611b3686828701611aba565b9350506020611b4786828701611aba565b9250506040611b5886828701611a05565b9150509250925092565b600060208284031215611b7857611b7761186d565b5b6000611b8684828501611aba565b91505092915050565b611b98816119e4565b82525050565b6000602082019050611bb36000830184611b8f565b92915050565b611bc2816118fc565b8114611bcd57600080fd5b50565b600081359050611bdf81611bb9565b92915050565b60008060408385031215611bfc57611bfb61186d565b5b6000611c0a85828601611aba565b9250506020611c1b85828601611bd0565b9150509250929050565b600080fd5b600080fd5b7f4e487b7100000000000000000000000000000000000000000000000000000000600052604160045260246000fd5b611c6782611978565b810181811067ffffffffffffffff82111715611c8657611c85611c2f565b5b80604052505050565b6000611c99611863565b9050611ca58282611c5e565b919050565b600067ffffffffffffffff821115611cc557611cc4611c2f565b5b611cce82611978565b9050602081019050919050565b82818337600083830152505050565b6000611cfd611cf884611caa565b611c8f565b905082815260208101848484011115611d1957611d18611c2a565b5b611d24848285611cdb565b509392505050565b600082601f830112611d4157611d40611c25565b5b8135611d51848260208601611cea565b91505092915050565b60008060008060808587031215611d7457611d7361186d565b5b6000611d8287828801611aba565b9450506020611d9387828801611aba565b9350506040611da487828801611a05565b925050606085013567ffffffffffffffff811115611dc557611dc4611872565b5b611dd187828801611d2c565b91505092959194509250565b60008060408385031215611df457611df361186d565b5b6000611e0285828601611aba565b9250506020611e1385828601611aba565b9150509250929050565b7f4e487b7100000000000000000000000000000000000000000000000000000000600052602260045260246000fd5b60006002820490506001821680611e6457607f821691505b602082108103611e7757611e76611e1d565b5b50919050565b6000606082019050611e926000830186611a79565b611e9f6020830185611b8f565b611eac6040830184611a79565b949350505050565b7f4e487b7100000000000000000000000000000000000000000000000000000000600052601160045260246000fd5b6000611eee826119e4565b91507fffffffffffffffffffffffffffffffffffffffffffffffffffffffffffffffff8203611f2057611f1f611eb4565b5b600182019050919050565b600081905092915050565b6000611f4182611932565b611f4b8185611f2b565b9350611f5b81856020860161194e565b80840191505092915050565b6000611f738285611f36565b9150611f7f8284611f36565b91508190509392505050565b600081519050919050565b600082825260208201905092915050565b6000611fb282611f8b565b611fbc8185611f96565b9350611fcc81856020860161194e565b611fd581611978565b840191505092915050565b6000608082019050611ff56000830187611a79565b6120026020830186611a79565b61200f6040830185611b8f565b81810360608301526120218184611fa7565b905095945050505050565b60008151905061203b816118a3565b92915050565b6000602082840312156120575761205661186d565b5b60006120658482850161202c565b91505092915050565b7f4e487b7100000000000000000000000000000000000000000000000000000000600052601260045260246000fd5b60006040820190506120b26000830185611a79565b6120bf6020830184611b8f565b939250505056fea264697066735822122026de974b2b7b31e0141a9815dccec97fc029a05c8cba6ac95929704e8750540264736f6c63430008180033",
  "linkReferences": {},
  "deployedLinkReferences": {}
}